{
    "_format": "hh-sol-artifact-1",
    "contractName": "Dbank",
    "sourceName": "contracts/Dbank.sol",
    "abi": [
        {
            "inputs": [],
            "stateMutability": "nonpayable",
            "type": "constructor"
        },
        {
            "anonymous": false,
            "inputs": [
                {
                    "indexed": true,
                    "internalType": "address",
                    "name": "user",
                    "type": "address"
                },
                {
                    "indexed": false,
                    "internalType": "uint256",
                    "name": "amount",
                    "type": "uint256"
                },
                {
                    "indexed": false,
                    "internalType": "string",
                    "name": "name",
                    "type": "string"
                }
            ],
            "name": "DepositMade",
            "type": "event"
        },
        {
            "anonymous": false,
            "inputs": [
                {
                    "indexed": true,
                    "internalType": "address",
                    "name": "from",
                    "type": "address"
                },
                {
                    "indexed": true,
                    "internalType": "address",
                    "name": "to",
                    "type": "address"
                },
                {
                    "indexed": false,
                    "internalType": "uint256",
                    "name": "amount",
                    "type": "uint256"
                }
            ],
            "name": "FundsTransferred",
            "type": "event"
        },
        {
            "anonymous": false,
            "inputs": [
                {
                    "indexed": true,
                    "internalType": "address",
                    "name": "user",
                    "type": "address"
                },
                {
                    "indexed": false,
                    "internalType": "uint256",
                    "name": "amount",
                    "type": "uint256"
                }
            ],
            "name": "WithdrawalCompleted",
            "type": "event"
        },
        {
            "anonymous": false,
            "inputs": [
                {
                    "indexed": true,
                    "internalType": "address",
                    "name": "user",
                    "type": "address"
                },
                {
                    "indexed": false,
                    "internalType": "uint256",
                    "name": "amount",
                    "type": "uint256"
                },
                {
                    "indexed": false,
                    "internalType": "uint256",
                    "name": "requestTime",
                    "type": "uint256"
                }
            ],
            "name": "WithdrawalRequested",
            "type": "event"
        },
        {
            "stateMutability": "payable",
            "type": "fallback"
        },
        {
            "inputs": [
                {
                    "internalType": "string",
                    "name": "_name",
                    "type": "string"
                }
            ],
            "name": "DepositMoney",
            "outputs": [],
            "stateMutability": "payable",
            "type": "function"
        },
        {
            "inputs": [],
            "name": "MIN_DEPOSIT",
            "outputs": [
                {
                    "internalType": "uint256",
                    "name": "",
                    "type": "uint256"
                }
            ],
            "stateMutability": "view",
            "type": "function"
        },
        {
            "inputs": [
                {
                    "internalType": "uint256",
                    "name": "amount",
                    "type": "uint256"
                }
            ],
            "name": "Reqwithdraw",
            "outputs": [],
            "stateMutability": "nonpayable",
            "type": "function"
        },
        {
            "inputs": [
                {
                    "internalType": "uint256",
                    "name": "amount",
                    "type": "uint256"
                },
                {
                    "internalType": "address",
                    "name": "_to",
                    "type": "address"
                }
            ],
            "name": "TransferMoney",
            "outputs": [],
            "stateMutability": "nonpayable",
            "type": "function"
        },
        {
            "inputs": [
                {
                    "internalType": "address",
                    "name": "",
                    "type": "address"
                }
            ],
            "name": "balances",
            "outputs": [
                {
                    "internalType": "uint256",
                    "name": "",
                    "type": "uint256"
                }
            ],
            "stateMutability": "view",
            "type": "function"
        },
        {
            "inputs": [],
            "name": "checkBalance",
            "outputs": [
                {
                    "internalType": "uint256",
                    "name": "",
                    "type": "uint256"
                }
            ],
            "stateMutability": "view",
            "type": "function"
        },
        {
            "inputs": [],
            "name": "checkpendings",
            "outputs": [
                {
                    "internalType": "uint256",
                    "name": "",
                    "type": "uint256"
                }
            ],
            "stateMutability": "view",
            "type": "function"
        },
        {
            "inputs": [],
            "name": "claimWithdraw",
            "outputs": [],
            "stateMutability": "nonpayable",
            "type": "function"
        },
        {
            "inputs": [
                {
                    "internalType": "address",
                    "name": "",
                    "type": "address"
                },
                {
                    "internalType": "uint256",
                    "name": "",
                    "type": "uint256"
                }
            ],
            "name": "deposits",
            "outputs": [
                {
                    "internalType": "uint256",
                    "name": "amount",
                    "type": "uint256"
                },
                {
                    "internalType": "string",
                    "name": "name",
                    "type": "string"
                },
                {
                    "internalType": "uint256",
                    "name": "depositTime",
                    "type": "uint256"
                }
            ],
            "stateMutability": "view",
            "type": "function"
        },
        {
            "inputs": [],
            "name": "getAllDepositss",
            "outputs": [
                {
                    "components": [
                        {
                            "internalType": "uint256",
                            "name": "amount",
                            "type": "uint256"
                        },
                        {
                            "internalType": "string",
                            "name": "name",
                            "type": "string"
                        },
                        {
                            "internalType": "uint256",
                            "name": "depositTime",
                            "type": "uint256"
                        }
                    ],
                    "internalType": "struct Dbank.Deposit[]",
                    "name": "",
                    "type": "tuple[]"
                }
            ],
            "stateMutability": "view",
            "type": "function"
        },
        {
            "inputs": [],
            "name": "getAllWithdraws",
            "outputs": [
                {
                    "components": [
                        {
                            "internalType": "uint256",
                            "name": "amount",
                            "type": "uint256"
                        },
                        {
                            "internalType": "uint256",
                            "name": "wthdrawTime",
                            "type": "uint256"
                        }
                    ],
                    "internalType": "struct Dbank.Withdraw[]",
                    "name": "",
                    "type": "tuple[]"
                }
            ],
            "stateMutability": "view",
            "type": "function"
        },
        {
            "inputs": [],
            "name": "getAlltransfers",
            "outputs": [
                {
                    "components": [
                        {
                            "internalType": "uint256",
                            "name": "amount",
                            "type": "uint256"
                        },
                        {
                            "internalType": "address",
                            "name": "receiver",
                            "type": "address"
                        },
                        {
                            "internalType": "uint256",
                            "name": "depositTime",
                            "type": "uint256"
                        }
                    ],
                    "internalType": "struct Dbank.Transfer[]",
                    "name": "",
                    "type": "tuple[]"
                }
            ],
            "stateMutability": "view",
            "type": "function"
        },
        {
            "inputs": [
                {
                    "internalType": "address",
                    "name": "",
                    "type": "address"
                }
            ],
            "name": "lastWithdrawls",
            "outputs": [
                {
                    "internalType": "uint256",
                    "name": "",
                    "type": "uint256"
                }
            ],
            "stateMutability": "view",
            "type": "function"
        },
        {
            "inputs": [],
            "name": "owner",
            "outputs": [
                {
                    "internalType": "address",
                    "name": "",
                    "type": "address"
                }
            ],
            "stateMutability": "view",
            "type": "function"
        },
        {
            "inputs": [
                {
                    "internalType": "address",
                    "name": "",
                    "type": "address"
                }
            ],
            "name": "pendingPayments",
            "outputs": [
                {
                    "internalType": "uint256",
                    "name": "amount",
                    "type": "uint256"
                },
                {
                    "internalType": "uint256",
                    "name": "requestTime",
                    "type": "uint256"
                },
                {
                    "internalType": "bool",
                    "name": "isPending",
                    "type": "bool"
                }
            ],
            "stateMutability": "view",
            "type": "function"
        },
        {
            "inputs": [
                {
                    "internalType": "address",
                    "name": "",
                    "type": "address"
                },
                {
                    "internalType": "uint256",
                    "name": "",
                    "type": "uint256"
                }
            ],
            "name": "tranfers",
            "outputs": [
                {
                    "internalType": "uint256",
                    "name": "amount",
                    "type": "uint256"
                },
                {
                    "internalType": "address",
                    "name": "receiver",
                    "type": "address"
                },
                {
                    "internalType": "uint256",
                    "name": "depositTime",
                    "type": "uint256"
                }
            ],
            "stateMutability": "view",
            "type": "function"
        },
        {
            "inputs": [
                {
                    "internalType": "address",
                    "name": "",
                    "type": "address"
                },
                {
                    "internalType": "uint256",
                    "name": "",
                    "type": "uint256"
                }
            ],
            "name": "withdraws",
            "outputs": [
                {
                    "internalType": "uint256",
                    "name": "amount",
                    "type": "uint256"
                },
                {
                    "internalType": "uint256",
                    "name": "wthdrawTime",
                    "type": "uint256"
                }
            ],
            "stateMutability": "view",
            "type": "function"
        },
        {
            "stateMutability": "payable",
            "type": "receive"
        }
    ],
    "bytecode": "0x60a0604052600160075534801561001557600080fd5b503373ffffffffffffffffffffffffffffffffffffffff1660808173ffffffffffffffffffffffffffffffffffffffff1681525050600160078190555060805161256261006d6000396000610acc01526125626000f3fe6080604052600436106101015760003560e01c80638da5cb5b11610095578063c71daccb11610064578063c71daccb146103ec578063d15801e114610417578063d6d6817714610455578063e1e158a514610494578063f255a2ea146104bf5761015d565b80638da5cb5b146103325780638dfbd7831461035d5780638fdb1d171461038657806399ce610a146103af5761015d565b80632cdd0b3c116100d15780632cdd0b3c1461025e5780635906fa191461029d5780635de4255c146102c85780637f38e526146102f35761015d565b8062f1c4f5146101b45780630e8584aa146101df578063120ec96c146101f657806327e235e3146102215761015d565b3661015d5734600460003373ffffffffffffffffffffffffffffffffffffffff1673ffffffffffffffffffffffffffffffffffffffff1681526020019081526020016000206000828254610155919061154b565b925050819055005b34600460003373ffffffffffffffffffffffffffffffffffffffff1673ffffffffffffffffffffffffffffffffffffffff16815260200190815260200160002060008282546101ac919061154b565b925050819055005b3480156101c057600080fd5b506101c96104db565b6040516101d6919061158e565b60405180910390f35b3480156101eb57600080fd5b506101f4610525565b005b34801561020257600080fd5b5061020b61071c565b6040516102189190611696565b60405180910390f35b34801561022d57600080fd5b506102486004803603810190610243919061172a565b6107cc565b604051610255919061158e565b60405180910390f35b34801561026a57600080fd5b5061028560048036038101906102809190611783565b6107e4565b604051610294939291906117d2565b60405180910390f35b3480156102a957600080fd5b506102b261084b565b6040516102bf9190611909565b60405180910390f35b3480156102d457600080fd5b506102dd610951565b6040516102ea9190611acd565b60405180910390f35b3480156102ff57600080fd5b5061031a6004803603810190610315919061172a565b610a93565b60405161032993929190611b0a565b60405180910390f35b34801561033e57600080fd5b50610347610aca565b6040516103549190611b41565b60405180910390f35b34801561036957600080fd5b50610384600480360381019061037f9190611b5c565b610aee565b005b34801561039257600080fd5b506103ad60048036038101906103a89190611b89565b610e68565b005b3480156103bb57600080fd5b506103d660048036038101906103d1919061172a565b6111ea565b6040516103e3919061158e565b60405180910390f35b3480156103f857600080fd5b50610401611202565b60405161040e919061158e565b60405180910390f35b34801561042357600080fd5b5061043e60048036038101906104399190611783565b611249565b60405161044c929190611bc9565b60405180910390f35b34801561046157600080fd5b5061047c60048036038101906104779190611783565b61128a565b60405161048b93929190611c3c565b60405180910390f35b3480156104a057600080fd5b506104a9611359565b6040516104b6919061158e565b60405180910390f35b6104d960048036038101906104d49190611daf565b611364565b005b6000600560003373ffffffffffffffffffffffffffffffffffffffff1673ffffffffffffffffffffffffffffffffffffffff16815260200190815260200160002060000154905090565b60026007540361056a576040517f08c379a000000000000000000000000000000000000000000000000000000000815260040161056190611e44565b60405180910390fd5b60026007819055506000600560003373ffffffffffffffffffffffffffffffffffffffff1673ffffffffffffffffffffffffffffffffffffffff16815260200190815260200160002090508060020160009054906101000a900460ff16610606576040517f08c379a00000000000000000000000000000000000000000000000000000000081526004016105fd90611eb0565b60405180910390fd5b603c8160010154610617919061154b565b421015610659576040517f08c379a000000000000000000000000000000000000000000000000000000000815260040161065090611f1c565b60405180910390fd5b600560003373ffffffffffffffffffffffffffffffffffffffff1673ffffffffffffffffffffffffffffffffffffffff16815260200190815260200160002060008082016000905560018201600090556002820160006101000a81549060ff021916905550503373ffffffffffffffffffffffffffffffffffffffff167f1a39b9c5044b9f0ff56c5951e30c1ebe24911353aafcceb9250e83a24fe158c48260000154604051610709919061158e565b60405180910390a2506001600781905550565b6060600360003373ffffffffffffffffffffffffffffffffffffffff1673ffffffffffffffffffffffffffffffffffffffff168152602001908152602001600020805480602002602001604051908101604052809291908181526020016000905b828210156107c35783829060005260206000209060020201604051806040016040529081600082015481526020016001820154815250508152602001906001019061077d565b50505050905090565b60046020528060005260406000206000915090505481565b6002602052816000526040600020818154811061080057600080fd5b9060005260206000209060030201600091509150508060000154908060010160009054906101000a900473ffffffffffffffffffffffffffffffffffffffff16908060020154905083565b6060600260003373ffffffffffffffffffffffffffffffffffffffff1673ffffffffffffffffffffffffffffffffffffffff168152602001908152602001600020805480602002602001604051908101604052809291908181526020016000905b828210156109485783829060005260206000209060030201604051806060016040529081600082015481526020016001820160009054906101000a900473ffffffffffffffffffffffffffffffffffffffff1673ffffffffffffffffffffffffffffffffffffffff1673ffffffffffffffffffffffffffffffffffffffff168152602001600282015481525050815260200190600101906108ac565b50505050905090565b6060600160003373ffffffffffffffffffffffffffffffffffffffff1673ffffffffffffffffffffffffffffffffffffffff168152602001908152602001600020805480602002602001604051908101604052809291908181526020016000905b82821015610a8a5783829060005260206000209060030201604051806060016040529081600082015481526020016001820180546109ef90611f6b565b80601f0160208091040260200160405190810160405280929190818152602001828054610a1b90611f6b565b8015610a685780601f10610a3d57610100808354040283529160200191610a68565b820191906000526020600020905b815481529060010190602001808311610a4b57829003601f168201915b50505050508152602001600282015481525050815260200190600101906109b2565b50505050905090565b60056020528060005260406000206000915090508060000154908060010154908060020160009054906101000a900460ff16905083565b7f000000000000000000000000000000000000000000000000000000000000000081565b600260075403610b33576040517f08c379a0000000000000000000000000000000000000000000000000000000008152600401610b2a90611e44565b60405180910390fd5b600260078190555080600460003373ffffffffffffffffffffffffffffffffffffffff1673ffffffffffffffffffffffffffffffffffffffff168152602001908152602001600020541015610bbd576040517f08c379a0000000000000000000000000000000000000000000000000000000008152600401610bb490611fe8565b60405180910390fd5b600560003373ffffffffffffffffffffffffffffffffffffffff1673ffffffffffffffffffffffffffffffffffffffff16815260200190815260200160002060020160009054906101000a900460ff1615610c4d576040517f08c379a0000000000000000000000000000000000000000000000000000000008152600401610c449061207a565b60405180910390fd5b60008111610c90576040517f08c379a0000000000000000000000000000000000000000000000000000000008152600401610c87906120e6565b60405180910390fd5b80600460003373ffffffffffffffffffffffffffffffffffffffff1673ffffffffffffffffffffffffffffffffffffffff1681526020019081526020016000206000828254610cdf9190612106565b92505081905550604051806060016040528082815260200142815260200160011515815250600560003373ffffffffffffffffffffffffffffffffffffffff1673ffffffffffffffffffffffffffffffffffffffff168152602001908152602001600020600082015181600001556020820151816001015560408201518160020160006101000a81548160ff021916908315150217905550905050600360003373ffffffffffffffffffffffffffffffffffffffff1673ffffffffffffffffffffffffffffffffffffffff1681526020019081526020016000206040518060400160405280838152602001428152509080600181540180825580915050600190039060005260206000209060020201600090919091909150600082015181600001556020820151816001015550503373ffffffffffffffffffffffffffffffffffffffff167f24b91f4f47caf44230a57777a9be744924e82bf666f2d5702faf97df35e60f9f8242604051610e55929190611bc9565b60405180910390a2600160078190555050565b600260075403610ead576040517f08c379a0000000000000000000000000000000000000000000000000000000008152600401610ea490611e44565b60405180910390fd5b6002600781905550600073ffffffffffffffffffffffffffffffffffffffff168173ffffffffffffffffffffffffffffffffffffffff1603610f24576040517f08c379a0000000000000000000000000000000000000000000000000000000008152600401610f1b90612186565b60405180910390fd5b81600460003373ffffffffffffffffffffffffffffffffffffffff1673ffffffffffffffffffffffffffffffffffffffff168152602001908152602001600020541015610fa6576040517f08c379a0000000000000000000000000000000000000000000000000000000008152600401610f9d90611fe8565b60405180910390fd5b60008211610fe9576040517f08c379a0000000000000000000000000000000000000000000000000000000008152600401610fe0906121f2565b60405180910390fd5b81600460003373ffffffffffffffffffffffffffffffffffffffff1673ffffffffffffffffffffffffffffffffffffffff1681526020019081526020016000206000828254039250508190555081600460008373ffffffffffffffffffffffffffffffffffffffff1673ffffffffffffffffffffffffffffffffffffffff16815260200190815260200160002060008282540192505081905550600260003373ffffffffffffffffffffffffffffffffffffffff1673ffffffffffffffffffffffffffffffffffffffff16815260200190815260200160002060405180606001604052808481526020018373ffffffffffffffffffffffffffffffffffffffff1681526020014281525090806001815401808255809150506001900390600052602060002090600302016000909190919091506000820151816000015560208201518160010160006101000a81548173ffffffffffffffffffffffffffffffffffffffff021916908373ffffffffffffffffffffffffffffffffffffffff1602179055506040820151816002015550508073ffffffffffffffffffffffffffffffffffffffff163373ffffffffffffffffffffffffffffffffffffffff167f78e6250172d8e0a57d8d41f480f13581571a2d27bb2a93f5f7bd2511f5c22a6c846040516111d6919061158e565b60405180910390a360016007819055505050565b60066020528060005260406000206000915090505481565b6000600460003373ffffffffffffffffffffffffffffffffffffffff1673ffffffffffffffffffffffffffffffffffffffff16815260200190815260200160002054905090565b6003602052816000526040600020818154811061126557600080fd5b9060005260206000209060020201600091509150508060000154908060010154905082565b600160205281600052604060002081815481106112a657600080fd5b9060005260206000209060030201600091509150508060000154908060010180546112d090611f6b565b80601f01602080910402602001604051908101604052809291908181526020018280546112fc90611f6b565b80156113495780601f1061131e57610100808354040283529160200191611349565b820191906000526020600020905b81548152906001019060200180831161132c57829003601f168201915b5050505050908060020154905083565b662386f26fc1000081565b662386f26fc100003410156113ae576040517f08c379a00000000000000000000000000000000000000000000000000000000081526004016113a59061225e565b60405180910390fd5b6113b7816113ba565b50565b34600460003373ffffffffffffffffffffffffffffffffffffffff1673ffffffffffffffffffffffffffffffffffffffff1681526020019081526020016000206000828254611409919061154b565b92505081905550600160003373ffffffffffffffffffffffffffffffffffffffff1673ffffffffffffffffffffffffffffffffffffffff16815260200190815260200160002060405180606001604052803481526020018381526020014281525090806001815401808255809150506001900390600052602060002090600302016000909190919091506000820151816000015560208201518160010190816114b2919061242a565b506040820151816002015550503373ffffffffffffffffffffffffffffffffffffffff167fe7db431dd1b2b791511a390e0471de01e7db3350767e8bfd1a48f2d23b33838434836040516115079291906124fc565b60405180910390a250565b6000819050919050565b7f4e487b7100000000000000000000000000000000000000000000000000000000600052601160045260246000fd5b600061155682611512565b915061156183611512565b92508282019050808211156115795761157861151c565b5b92915050565b61158881611512565b82525050565b60006020820190506115a3600083018461157f565b92915050565b600081519050919050565b600082825260208201905092915050565b6000819050602082019050919050565b6115de81611512565b82525050565b6040820160008201516115fa60008501826115d5565b50602082015161160d60208501826115d5565b50505050565b600061161f83836115e4565b60408301905092915050565b6000602082019050919050565b6000611643826115a9565b61164d81856115b4565b9350611658836115c5565b8060005b838110156116895781516116708882611613565b975061167b8361162b565b92505060018101905061165c565b5085935050505092915050565b600060208201905081810360008301526116b08184611638565b905092915050565b6000604051905090565b600080fd5b600080fd5b600073ffffffffffffffffffffffffffffffffffffffff82169050919050565b60006116f7826116cc565b9050919050565b611707816116ec565b811461171257600080fd5b50565b600081359050611724816116fe565b92915050565b6000602082840312156117405761173f6116c2565b5b600061174e84828501611715565b91505092915050565b61176081611512565b811461176b57600080fd5b50565b60008135905061177d81611757565b92915050565b6000806040838503121561179a576117996116c2565b5b60006117a885828601611715565b92505060206117b98582860161176e565b9150509250929050565b6117cc816116ec565b82525050565b60006060820190506117e7600083018661157f565b6117f460208301856117c3565b611801604083018461157f565b949350505050565b600081519050919050565b600082825260208201905092915050565b6000819050602082019050919050565b61183e816116ec565b82525050565b60608201600082015161185a60008501826115d5565b50602082015161186d6020850182611835565b50604082015161188060408501826115d5565b50505050565b60006118928383611844565b60608301905092915050565b6000602082019050919050565b60006118b682611809565b6118c08185611814565b93506118cb83611825565b8060005b838110156118fc5781516118e38882611886565b97506118ee8361189e565b9250506001810190506118cf565b5085935050505092915050565b6000602082019050818103600083015261192381846118ab565b905092915050565b600081519050919050565b600082825260208201905092915050565b6000819050602082019050919050565b600081519050919050565b600082825260208201905092915050565b60005b83811015611991578082015181840152602081019050611976565b60008484015250505050565b6000601f19601f8301169050919050565b60006119b982611957565b6119c38185611962565b93506119d3818560208601611973565b6119dc8161199d565b840191505092915050565b60006060830160008301516119ff60008601826115d5565b5060208301518482036020860152611a1782826119ae565b9150506040830151611a2c60408601826115d5565b508091505092915050565b6000611a4383836119e7565b905092915050565b6000602082019050919050565b6000611a638261192b565b611a6d8185611936565b935083602082028501611a7f85611947565b8060005b85811015611abb5784840389528151611a9c8582611a37565b9450611aa783611a4b565b925060208a01995050600181019050611a83565b50829750879550505050505092915050565b60006020820190508181036000830152611ae78184611a58565b905092915050565b60008115159050919050565b611b0481611aef565b82525050565b6000606082019050611b1f600083018661157f565b611b2c602083018561157f565b611b396040830184611afb565b949350505050565b6000602082019050611b5660008301846117c3565b92915050565b600060208284031215611b7257611b716116c2565b5b6000611b808482850161176e565b91505092915050565b60008060408385031215611ba057611b9f6116c2565b5b6000611bae8582860161176e565b9250506020611bbf85828601611715565b9150509250929050565b6000604082019050611bde600083018561157f565b611beb602083018461157f565b9392505050565b600082825260208201905092915050565b6000611c0e82611957565b611c188185611bf2565b9350611c28818560208601611973565b611c318161199d565b840191505092915050565b6000606082019050611c51600083018661157f565b8181036020830152611c638185611c03565b9050611c72604083018461157f565b949350505050565b600080fd5b600080fd5b7f4e487b7100000000000000000000000000000000000000000000000000000000600052604160045260246000fd5b611cbc8261199d565b810181811067ffffffffffffffff82111715611cdb57611cda611c84565b5b80604052505050565b6000611cee6116b8565b9050611cfa8282611cb3565b919050565b600067ffffffffffffffff821115611d1a57611d19611c84565b5b611d238261199d565b9050602081019050919050565b82818337600083830152505050565b6000611d52611d4d84611cff565b611ce4565b905082815260208101848484011115611d6e57611d6d611c7f565b5b611d79848285611d30565b509392505050565b600082601f830112611d9657611d95611c7a565b5b8135611da6848260208601611d3f565b91505092915050565b600060208284031215611dc557611dc46116c2565b5b600082013567ffffffffffffffff811115611de357611de26116c7565b5b611def84828501611d81565b91505092915050565b7f5265656e7472616e637947756172643a207265656e7472616e742063616c6c00600082015250565b6000611e2e601f83611bf2565b9150611e3982611df8565b602082019050919050565b60006020820190508181036000830152611e5d81611e21565b9050919050565b7f4e6f2070656e64696e672077697468647277616c730000000000000000000000600082015250565b6000611e9a601583611bf2565b9150611ea582611e64565b602082019050919050565b60006020820190508181036000830152611ec981611e8d565b9050919050565b7f5769746864726177616c2064656c6179206e6f74206d65740000000000000000600082015250565b6000611f06601883611bf2565b9150611f1182611ed0565b602082019050919050565b60006020820190508181036000830152611f3581611ef9565b9050919050565b7f4e487b7100000000000000000000000000000000000000000000000000000000600052602260045260246000fd5b60006002820490506001821680611f8357607f821691505b602082108103611f9657611f95611f3c565b5b50919050565b7f696e73756666696369656e7420616d6f756e7400000000000000000000000000600082015250565b6000611fd2601383611bf2565b9150611fdd82611f9c565b602082019050919050565b6000602082019050818103600083015261200181611fc5565b9050919050565b7f596f75206861766520746f20636c61696d2070726576696f757320776974686460008201527f7261772066697273740000000000000000000000000000000000000000000000602082015250565b6000612064602983611bf2565b915061206f82612008565b604082019050919050565b6000602082019050818103600083015261209381612057565b9050919050565b7f616d6f756e742073686f756c642062652067726561746572207468616e203000600082015250565b60006120d0601f83611bf2565b91506120db8261209a565b602082019050919050565b600060208201905081810360008301526120ff816120c3565b9050919050565b600061211182611512565b915061211c83611512565b92508282039050818111156121345761213361151c565b5b92915050565b7f496e76616c696420726563697069656e74206164647265737300000000000000600082015250565b6000612170601983611bf2565b915061217b8261213a565b602082019050919050565b6000602082019050818103600083015261219f81612163565b9050919050565b7f616d6f756e742073686f756c642062652067726561746572207468616e000000600082015250565b60006121dc601d83611bf2565b91506121e7826121a6565b602082019050919050565b6000602082019050818103600083015261220b816121cf565b9050919050565b7f6d757374206465706f73697420736f6d652062616c616e636500000000000000600082015250565b6000612248601983611bf2565b915061225382612212565b602082019050919050565b600060208201905081810360008301526122778161223b565b9050919050565b60008190508160005260206000209050919050565b60006020601f8301049050919050565b600082821b905092915050565b6000600883026122e07fffffffffffffffffffffffffffffffffffffffffffffffffffffffffffffffff826122a3565b6122ea86836122a3565b95508019841693508086168417925050509392505050565b6000819050919050565b600061232761232261231d84611512565b612302565b611512565b9050919050565b6000819050919050565b6123418361230c565b61235561234d8261232e565b8484546122b0565b825550505050565b600090565b61236a61235d565b612375818484612338565b505050565b5b818110156123995761238e600082612362565b60018101905061237b565b5050565b601f8211156123de576123af8161227e565b6123b884612293565b810160208510156123c7578190505b6123db6123d385612293565b83018261237a565b50505b505050565b600082821c905092915050565b6000612401600019846008026123e3565b1980831691505092915050565b600061241a83836123f0565b9150826002028217905092915050565b61243382611957565b67ffffffffffffffff81111561244c5761244b611c84565b5b6124568254611f6b565b61246182828561239d565b600060209050601f8311600181146124945760008415612482578287015190505b61248c858261240e565b8655506124f4565b601f1984166124a28661227e565b60005b828110156124ca578489015182556001820191506020850194506020810190506124a5565b868310156124e757848901516124e3601f8916826123f0565b8355505b6001600288020188555050505b505050505050565b6000604082019050612511600083018561157f565b81810360208301526125238184611c03565b9050939250505056fea264697066735822122098b3a9e613f9fc4e04d5e5286ca262ea35da8f85e019da38f7619fffcbb6be2464736f6c63430008130033",
    "linkReferences": {},
    "deployedLinkReferences": {}
}