{
  "_format": "hh-sol-artifact-1",
  "contractName": "Dbank",
  "sourceName": "contracts/Dbank.sol",
  "abi": [
    {
      "inputs": [],
      "stateMutability": "nonpayable",
      "type": "constructor"
    },
    {
      "anonymous": false,
      "inputs": [
        {
          "indexed": true,
          "internalType": "address",
          "name": "user",
          "type": "address"
        },
        {
          "indexed": false,
          "internalType": "uint256",
          "name": "amount",
          "type": "uint256"
        },
        {
          "indexed": false,
          "internalType": "string",
          "name": "name",
          "type": "string"
        }
      ],
      "name": "DepositMade",
      "type": "event"
    },
    {
      "anonymous": false,
      "inputs": [
        {
          "indexed": true,
          "internalType": "address",
          "name": "from",
          "type": "address"
        },
        {
          "indexed": true,
          "internalType": "address",
          "name": "to",
          "type": "address"
        },
        {
          "indexed": false,
          "internalType": "uint256",
          "name": "amount",
          "type": "uint256"
        }
      ],
      "name": "FundsTransferred",
      "type": "event"
    },
    {
      "anonymous": false,
      "inputs": [
        {
          "indexed": true,
          "internalType": "address",
          "name": "user",
          "type": "address"
        },
        {
          "indexed": false,
          "internalType": "uint256",
          "name": "amount",
          "type": "uint256"
        }
      ],
      "name": "WithdrawalCompleted",
      "type": "event"
    },
    {
      "anonymous": false,
      "inputs": [
        {
          "indexed": true,
          "internalType": "address",
          "name": "user",
          "type": "address"
        },
        {
          "indexed": false,
          "internalType": "uint256",
          "name": "amount",
          "type": "uint256"
        },
        {
          "indexed": false,
          "internalType": "uint256",
          "name": "requestTime",
          "type": "uint256"
        }
      ],
      "name": "WithdrawalRequested",
      "type": "event"
    },
    {
      "stateMutability": "payable",
      "type": "fallback"
    },
    {
      "inputs": [
        {
          "internalType": "string",
          "name": "_name",
          "type": "string"
        }
      ],
      "name": "DepositMoney",
      "outputs": [],
      "stateMutability": "payable",
      "type": "function"
    },
    {
      "inputs": [],
      "name": "MIN_DEPOSIT",
      "outputs": [
        {
          "internalType": "uint256",
          "name": "",
          "type": "uint256"
        }
      ],
      "stateMutability": "view",
      "type": "function"
    },
    {
      "inputs": [
        {
          "internalType": "uint256",
          "name": "amount",
          "type": "uint256"
        }
      ],
      "name": "Reqwithdraw",
      "outputs": [],
      "stateMutability": "nonpayable",
      "type": "function"
    },
    {
      "inputs": [
        {
          "internalType": "uint256",
          "name": "amount",
          "type": "uint256"
        },
        {
          "internalType": "address",
          "name": "_to",
          "type": "address"
        }
      ],
      "name": "TransferMoney",
      "outputs": [],
      "stateMutability": "nonpayable",
      "type": "function"
    },
    {
      "inputs": [
        {
          "internalType": "address",
          "name": "",
          "type": "address"
        }
      ],
      "name": "balances",
      "outputs": [
        {
          "internalType": "uint256",
          "name": "",
          "type": "uint256"
        }
      ],
      "stateMutability": "view",
      "type": "function"
    },
    {
      "inputs": [],
      "name": "checkBalance",
      "outputs": [
        {
          "internalType": "uint256",
          "name": "",
          "type": "uint256"
        }
      ],
      "stateMutability": "view",
      "type": "function"
    },
    {
      "inputs": [],
      "name": "checkpendings",
      "outputs": [
        {
          "components": [
            {
              "internalType": "uint256",
              "name": "amount",
              "type": "uint256"
            },
            {
              "internalType": "uint256",
              "name": "requestTime",
              "type": "uint256"
            },
            {
              "internalType": "bool",
              "name": "isPending",
              "type": "bool"
            }
          ],
          "internalType": "struct Dbank.PendingWithdrawls",
          "name": "",
          "type": "tuple"
        }
      ],
      "stateMutability": "view",
      "type": "function"
    },
    {
      "inputs": [],
      "name": "claimWithdraw",
      "outputs": [],
      "stateMutability": "nonpayable",
      "type": "function"
    },
    {
      "inputs": [
        {
          "internalType": "address",
          "name": "",
          "type": "address"
        },
        {
          "internalType": "uint256",
          "name": "",
          "type": "uint256"
        }
      ],
      "name": "deposits",
      "outputs": [
        {
          "internalType": "uint256",
          "name": "amount",
          "type": "uint256"
        },
        {
          "internalType": "string",
          "name": "name",
          "type": "string"
        },
        {
          "internalType": "uint256",
          "name": "depositTime",
          "type": "uint256"
        }
      ],
      "stateMutability": "view",
      "type": "function"
    },
    {
      "inputs": [],
      "name": "getAllDepositss",
      "outputs": [
        {
          "components": [
            {
              "internalType": "uint256",
              "name": "amount",
              "type": "uint256"
            },
            {
              "internalType": "string",
              "name": "name",
              "type": "string"
            },
            {
              "internalType": "uint256",
              "name": "depositTime",
              "type": "uint256"
            }
          ],
          "internalType": "struct Dbank.Deposit[]",
          "name": "",
          "type": "tuple[]"
        }
      ],
      "stateMutability": "view",
      "type": "function"
    },
    {
      "inputs": [],
      "name": "getAllWithdraws",
      "outputs": [
        {
          "components": [
            {
              "internalType": "uint256",
              "name": "amount",
              "type": "uint256"
            },
            {
              "internalType": "uint256",
              "name": "wthdrawTime",
              "type": "uint256"
            }
          ],
          "internalType": "struct Dbank.Withdraw[]",
          "name": "",
          "type": "tuple[]"
        }
      ],
      "stateMutability": "view",
      "type": "function"
    },
    {
      "inputs": [],
      "name": "getAlltransfers",
      "outputs": [
        {
          "components": [
            {
              "internalType": "uint256",
              "name": "amount",
              "type": "uint256"
            },
            {
              "internalType": "address",
              "name": "receiver",
              "type": "address"
            },
            {
              "internalType": "uint256",
              "name": "depositTime",
              "type": "uint256"
            }
          ],
          "internalType": "struct Dbank.Transfer[]",
          "name": "",
          "type": "tuple[]"
        }
      ],
      "stateMutability": "view",
      "type": "function"
    },
    {
      "inputs": [
        {
          "internalType": "address",
          "name": "",
          "type": "address"
        }
      ],
      "name": "lastWithdrawls",
      "outputs": [
        {
          "internalType": "uint256",
          "name": "",
          "type": "uint256"
        }
      ],
      "stateMutability": "view",
      "type": "function"
    },
    {
      "inputs": [],
      "name": "owner",
      "outputs": [
        {
          "internalType": "address",
          "name": "",
          "type": "address"
        }
      ],
      "stateMutability": "view",
      "type": "function"
    },
    {
      "inputs": [
        {
          "internalType": "address",
          "name": "",
          "type": "address"
        }
      ],
      "name": "pendingPayments",
      "outputs": [
        {
          "internalType": "uint256",
          "name": "amount",
          "type": "uint256"
        },
        {
          "internalType": "uint256",
          "name": "requestTime",
          "type": "uint256"
        },
        {
          "internalType": "bool",
          "name": "isPending",
          "type": "bool"
        }
      ],
      "stateMutability": "view",
      "type": "function"
    },
    {
      "inputs": [
        {
          "internalType": "address",
          "name": "",
          "type": "address"
        },
        {
          "internalType": "uint256",
          "name": "",
          "type": "uint256"
        }
      ],
      "name": "tranfers",
      "outputs": [
        {
          "internalType": "uint256",
          "name": "amount",
          "type": "uint256"
        },
        {
          "internalType": "address",
          "name": "receiver",
          "type": "address"
        },
        {
          "internalType": "uint256",
          "name": "depositTime",
          "type": "uint256"
        }
      ],
      "stateMutability": "view",
      "type": "function"
    },
    {
      "inputs": [
        {
          "internalType": "address",
          "name": "",
          "type": "address"
        },
        {
          "internalType": "uint256",
          "name": "",
          "type": "uint256"
        }
      ],
      "name": "withdraws",
      "outputs": [
        {
          "internalType": "uint256",
          "name": "amount",
          "type": "uint256"
        },
        {
          "internalType": "uint256",
          "name": "wthdrawTime",
          "type": "uint256"
        }
      ],
      "stateMutability": "view",
      "type": "function"
    },
    {
      "stateMutability": "payable",
      "type": "receive"
    }
  ],
  "bytecode": "0x60a06040526001600755348015601457600080fd5b503360805260016007556080516115ff61003960003960006102f301526115ff6000f3fe6080604052600436106101015760003560e01c80638da5cb5b11610095578063c71daccb11610064578063c71daccb1461039a578063d15801e1146103af578063d6d68177146103e4578063e1e158a514610413578063f255a2ea1461042e5761012d565b80638da5cb5b146102e15780638dfbd7831461032d5780638fdb1d171461034d57806399ce610a1461036d5761012d565b80632cdd0b3c116100d15780632cdd0b3c146101fe5780635906fa19146102415780635de4255c146102635780637f38e526146102855761012d565b8062f1c4f51461014c5780630e8584aa1461018a578063120ec96c146101a157806327e235e3146101c35761012d565b3661012d5733600090815260046020526040812080543492906101259084906110e2565b925050819055005b33600090815260046020526040812080543492906101259084906110e2565b34801561015857600080fd5b50610161610441565b604080518251815260208084015190820152918101511515908201526060015b60405180910390f35b34801561019657600080fd5b5061019f6104e5565b005b3480156101ad57600080fd5b506101b6610636565b60405161018191906110fb565b3480156101cf57600080fd5b506101f06101de366004611166565b60046020526000908152604090205481565b604051908152602001610181565b34801561020a57600080fd5b5061021e610219366004611188565b610740565b604080519384526001600160a01b03909216602084015290820152606001610181565b34801561024d57600080fd5b5061025661078c565b60405161018191906111b2565b34801561026f57600080fd5b506102786108b3565b6040516101819190611252565b34801561029157600080fd5b506102c46102a0366004611166565b60056020526000908152604090208054600182015460029092015490919060ff1683565b604080519384526020840192909252151590820152606001610181565b3480156102ed57600080fd5b506103157f000000000000000000000000000000000000000000000000000000000000000081565b6040516001600160a01b039091168152602001610181565b34801561033957600080fd5b5061019f6103483660046112d9565b610a54565b34801561035957600080fd5b5061019f6103683660046112f2565b610c73565b34801561037957600080fd5b506101f0610388366004611166565b60066020526000908152604090205481565b3480156103a657600080fd5b506101f0610e6b565b3480156103bb57600080fd5b506103cf6103ca366004611188565b610e9b565b60408051928352602083019190915201610181565b3480156103f057600080fd5b506104046103ff366004611188565b610ed7565b6040516101819392919061131e565b34801561041f57600080fd5b506101f0662386f26fc1000081565b61019f61043c36600461135d565b610fa6565b610467604051806060016040528060008152602001600081526020016000151581525090565b3360009081526005602052604090206002015460ff166104a6576040518060600160405280600081526020016000815260200160001515815250905090565b50336000908152600560209081526040918290208251606081018452815481526001820154928101929092526002015460ff1615159181019190915290565b6002600754036105105760405162461bcd60e51b815260040161050790611416565b60405180910390fd5b600260078190553360009081526005602052604090209081015460ff166105715760405162461bcd60e51b81526020600482015260156024820152744e6f2070656e64696e672077697468647277616c7360581b6044820152606401610507565b603c816001015461058291906110e2565b4210156105d15760405162461bcd60e51b815260206004820152601860248201527f5769746864726177616c2064656c6179206e6f74206d657400000000000000006044820152606401610507565b33600081815260056020908152604080832083815560018101939093556002909201805460ff19169055835491519182527f1a39b9c5044b9f0ff56c5951e30c1ebe24911353aafcceb9250e83a24fe158c491015b60405180910390a2506001600755565b336000908152600360205260408120546060919067ffffffffffffffff81111561066257610662611347565b6040519080825280602002602001820160405280156106a757816020015b60408051808201909152600080825260208201528152602001906001900390816106805790505b5033600090815260036020526040812054919250036106c557919050565b33600090815260036020908152604080832080548251818502810185019093528083529193909284015b82821015610735578382906000526020600020906002020160405180604001604052908160008201548152602001600182015481525050815260200190600101906106ef565b509295945050505050565b6002602052816000526040600020818154811061075c57600080fd5b60009182526020909120600390910201805460018201546002909201549093506001600160a01b03909116915083565b336000908152600260205260408120546060919067ffffffffffffffff8111156107b8576107b8611347565b60405190808252806020026020018201604052801561081657816020015b61080360405180606001604052806000815260200160006001600160a01b03168152602001600081525090565b8152602001906001900390816107d65790505b50336000908152600260205260408120549192500361083457919050565b33600090815260026020908152604080832080548251818502810185019093528083529193909284015b828210156107355760008481526020908190206040805160608101825260038602909201805483526001808201546001600160a01b03168486015260029091015491830191909152908352909201910161085e565b336000908152600160205260408120546060919067ffffffffffffffff8111156108df576108df611347565b60405190808252806020026020018201604052801561093457816020015b61092160405180606001604052806000815260200160608152602001600081525090565b8152602001906001900390816108fd5790505b50336000908152600160205260408120549192500361095257919050565b33600090815260016020908152604080832080548251818502810185019093528083529193909284015b828210156107355783829060005260206000209060030201604051806060016040529081600082015481526020016001820180546109b99061144d565b80601f01602080910402602001604051908101604052809291908181526020018280546109e59061144d565b8015610a325780601f10610a0757610100808354040283529160200191610a32565b820191906000526020600020905b815481529060010190602001808311610a1557829003601f168201915b505050505081526020016002820154815250508152602001906001019061097c565b600260075403610a765760405162461bcd60e51b815260040161050790611416565b600260075533600090815260046020526040902054811115610ad05760405162461bcd60e51b81526020600482015260136024820152721a5b9cdd59999a58da595b9d08185b5bdd5b9d606a1b6044820152606401610507565b3360009081526005602052604090206002015460ff1615610b455760405162461bcd60e51b815260206004820152602960248201527f596f75206861766520746f20636c61696d2070726576696f75732077697468646044820152681c985dc8199a5c9cdd60ba1b6064820152608401610507565b60008111610b955760405162461bcd60e51b815260206004820152601f60248201527f616d6f756e742073686f756c642062652067726561746572207468616e2030006044820152606401610507565b3360009081526004602052604081208054839290610bb4908490611487565b9091555050604080516060810182528281524260208083018281526001848601818152336000818152600586528881209751885593518784015590516002968701805460ff191691151591909117905560038452868320875180890189528981528086018781528254808601845592865294869020905191909702909601958655915194019390935583518581529081019190915290917f24b91f4f47caf44230a57777a9be744924e82bf666f2d5702faf97df35e60f9f9101610626565b600260075403610c955760405162461bcd60e51b815260040161050790611416565b60026007556001600160a01b038116610cf05760405162461bcd60e51b815260206004820152601960248201527f496e76616c696420726563697069656e742061646472657373000000000000006044820152606401610507565b33600090815260046020526040902054821115610d455760405162461bcd60e51b81526020600482015260136024820152721a5b9cdd59999a58da595b9d08185b5bdd5b9d606a1b6044820152606401610507565b60008211610d955760405162461bcd60e51b815260206004820152601d60248201527f616d6f756e742073686f756c642062652067726561746572207468616e0000006044820152606401610507565b336000818152600460209081526040808320805487900390556001600160a01b03858116808552828520805489019055858552600280855283862084516060810186528a815280870184815242828801908152835460018181018655948b529890992091516003909802909101968755519086018054919094166001600160a01b0319909116179092559351920191909155519091907f78e6250172d8e0a57d8d41f480f13581571a2d27bb2a93f5f7bd2511f5c22a6c90610e5a9086815260200190565b60405180910390a350506001600755565b336000908152600460205260408120548103610e875750600090565b503360009081526004602052604090205490565b60036020528160005260406000208181548110610eb757600080fd5b600091825260209091206002909102018054600190910154909250905082565b60016020528160005260406000208181548110610ef357600080fd5b906000526020600020906003020160009150915050806000015490806001018054610f1d9061144d565b80601f0160208091040260200160405190810160405280929190818152602001828054610f499061144d565b8015610f965780601f10610f6b57610100808354040283529160200191610f96565b820191906000526020600020905b815481529060010190602001808311610f7957829003601f168201915b5050505050908060020154905083565b662386f26fc10000341015610ffd5760405162461bcd60e51b815260206004820152601960248201527f6d757374206465706f73697420736f6d652062616c616e6365000000000000006044820152606401610507565b61100681611009565b50565b33600090815260046020526040812080543492906110289084906110e2565b909155505033600090815260016020818152604080842081516060810183523481528084018781524293820193909352815480860183559186529290942082516003909502019384555190929182019061108290826114e9565b506040918201516002909101555133907fe7db431dd1b2b791511a390e0471de01e7db3350767e8bfd1a48f2d23b338384906110c190349085906115a8565b60405180910390a250565b634e487b7160e01b600052601160045260246000fd5b808201808211156110f5576110f56110cc565b92915050565b602080825282518282018190526000918401906040840190835b8181101561113f578351805184526020908101518185015290930192604090920191600101611115565b509095945050505050565b80356001600160a01b038116811461116157600080fd5b919050565b60006020828403121561117857600080fd5b6111818261114a565b9392505050565b6000806040838503121561119b57600080fd5b6111a48361114a565b946020939093013593505050565b602080825282518282018190526000918401906040840190835b8181101561113f578351805184526020808201516001600160a01b03168186015260409182015191850191909152909301926060909201916001016111cc565b6000815180845260005b8181101561123257602081850181015186830182015201611216565b506000602082860101526020601f19601f83011685010191505092915050565b6000602082016020835280845180835260408501915060408160051b86010192506020860160005b828110156112cd57603f198786030184528151805186526020810151606060208801526112aa606088018261120c565b60409283015197909201969096529450602093840193919091019060010161127a565b50929695505050505050565b6000602082840312156112eb57600080fd5b5035919050565b6000806040838503121561130557600080fd5b823591506113156020840161114a565b90509250929050565b838152606060208201526000611337606083018561120c565b9050826040830152949350505050565b634e487b7160e01b600052604160045260246000fd5b60006020828403121561136f57600080fd5b813567ffffffffffffffff81111561138657600080fd5b8201601f8101841361139757600080fd5b803567ffffffffffffffff8111156113b1576113b1611347565b604051601f8201601f19908116603f0116810167ffffffffffffffff811182821017156113e0576113e0611347565b6040528181528282016020018610156113f857600080fd5b81602084016020830137600091810160200191909152949350505050565b6020808252601f908201527f5265656e7472616e637947756172643a207265656e7472616e742063616c6c00604082015260600190565b600181811c9082168061146157607f821691505b60208210810361148157634e487b7160e01b600052602260045260246000fd5b50919050565b818103818111156110f5576110f56110cc565b601f8211156114e457806000526020600020601f840160051c810160208510156114c15750805b601f840160051c820191505b818110156114e157600081556001016114cd565b50505b505050565b815167ffffffffffffffff81111561150357611503611347565b61151781611511845461144d565b8461149a565b6020601f82116001811461154b57600083156115335750848201515b600019600385901b1c1916600184901b1784556114e1565b600084815260208120601f198516915b8281101561157b578785015182556020948501946001909201910161155b565b50848210156115995786840151600019600387901b60f8161c191681555b50505050600190811b01905550565b8281526040602082015260006115c1604083018461120c565b94935050505056fea2646970667358221220274d7fd048f72e2c17f0ce2549b1f7b7aee0c8cce69378363c02d823e8af52b164736f6c634300081b0033",
  "linkReferences": {},
  "deployedLinkReferences": {}
}